:020000040000FA
:020000000029D5
:040002000034003492
:080008008B13A000030EA10000
:100010000B1911208C1A1620210E8300A00E200E21
:100020000900F83081000C210B110800B30A3108D7
:10003000B2003008B1002F08B0002E08AF002D0824
:10004000AE001A08AD000A3A031927280800063046
:100050003302031D3D282C303002031D3D28303073
:100060002E02A90030302F02AA0030303102AB003E
:1000700030303202AC00B3010800B30108000F3980
:1000800082078834EB344C3449342B341934183417
:10009000CB3408340B340A3438349C3468341C3480
:1000A0001E340F398207303431343234333434342F
:1000B00035343634373438343934413442344334C7
:0600C000443445344634CF
:100200007C2194219C21A621B321C421CA21302123
:1002100049214E2153210729851005118511051209
:1002200022182129A2181A292B083F20880085149A
:10023000A21408002C083F20880005152214A210E3
:100240000800A218292929083F2088008515A21432
:1002500008002A083F20880005162210A210080076
:100260008312031383309F006A219F149F1836293D
:10027000831203131E08A4008312031393309F00FC
:100280006A219F149F184229831203131E08A3009A
:1002900008002308A700230EA50008002408A800D2
:1002A000240EA60008002508512099006F21270878
:1002B000512099006F212C3099006F212608512080
:1002C00099006F212808512099006F210A30990068
:1002D0006F2108001730B400B40B6C290800FF3000
:1002E000B400B40B7129FF30B400B40B7529FF3092
:1002F000B400B40B79290800831203138501860129
:10030000870188018901831603178801081488165C
:100310008901831603132130850086018701880136
:100320008901831203130800831603136400D73076
:100330008100831203130800831603138C160B1716
:100340008B16831203138B170B11080083160313EC
:100350009F01831203131F149F141F119F119F12DB
:100360001F139F170800831603131813181218156C
:1003700083160317871183160313193099009A0106
:100380009816831203130800831203139817181387
:100390001816080083120313B3019E01A301A401E0
:0403A000B40108009C
:02400E00D420BC
:02401000FF3F70
:00000001FF
