:020000040000FA
:020000000029D5
:040002000034003492
:080008008B13A000030EA10000
:100010000C1B20200B1915208C181C208C1A4C202E
:10002000210E8300A00E200E0900F8308100082167
:100030002C2131210B1108000C1A30208C100800E3
:100040002C1829281E08A90086210C139F142C1493
:1000500008001E08AA0082210C139F142C1008000F
:100060002B08033C031948282B08023C0319442899
:100070002B08013C0319402829089900AB0A080005
:100080002C309900AB0A08002A309900AB0A08000E
:100090000A309900AB0108002D1852281A08A30055
:1000A0002D1408001A08A4002D10080008000F39AC
:1000B00082078834EB344C3449342B3419341834E7
:1000C000CB3408340B340A3438349C3468341C3450
:0200D0001E34DC
:1002000036215A216221672175218A219B210729E4
:10021000851005118511051222181D29A21816290D
:100220002708572088008514A214080028085720A2
:10023000880005152214A2100800A21825292508F7
:10024000572088008515A21408002608572088002A
:1002500005162210A21008002308A600230EA500F0
:1002600008002408A800240EA70008008312031326
:10027000850186018701880189018316031788019A
:10028000081488168901831603132130850086011E
:1002900087018801890183120313A201AC01AD011A
:1002A000AB01A301A401A901AA01A801A601A7010C
:1002B000A5010800831603136400D7308100831260
:1002C0000313080083120313FF3092000800831603
:1002D00003138C140C178C160B178B16143092000A
:1002E000831203138B170B110800831603139F014E
:1002F000831203131F149F141F119F119F121F13AA
:100300009F170800831203131F12080083120313A0
:100310001F160800831603131813181218158316D6
:100320000317871183160313193099009A01981641
:100330008312031308008312031398171813181657
:020340000800B3
:02400E00D420BC
:02401000FF3F70
:00000001FF
